{
  "_format": "hh-sol-artifact-1",
  "contractName": "RecycleChain",
  "sourceName": "contracts/RecycleChain.sol",
  "abi": [
    {
      "inputs": [
        {
          "internalType": "address",
          "name": "_owner",
          "type": "address"
        }
      ],
      "stateMutability": "nonpayable",
      "type": "constructor"
    },
    {
      "inputs": [
        {
          "internalType": "address",
          "name": "owner",
          "type": "address"
        }
      ],
      "name": "OwnableInvalidOwner",
      "type": "error"
    },
    {
      "inputs": [
        {
          "internalType": "address",
          "name": "account",
          "type": "address"
        }
      ],
      "name": "OwnableUnauthorizedAccount",
      "type": "error"
    },
    {
      "inputs": [],
      "name": "ReentrancyGuardReentrantCall",
      "type": "error"
    },
    {
      "anonymous": false,
      "inputs": [
        {
          "indexed": true,
          "internalType": "address",
          "name": "previousOwner",
          "type": "address"
        },
        {
          "indexed": true,
          "internalType": "address",
          "name": "newOwner",
          "type": "address"
        }
      ],
      "name": "OwnershipTransferred",
      "type": "event"
    },
    {
      "inputs": [
        {
          "internalType": "uint256",
          "name": "",
          "type": "uint256"
        }
      ],
      "name": "badges",
      "outputs": [
        {
          "internalType": "string",
          "name": "name",
          "type": "string"
        },
        {
          "internalType": "string",
          "name": "description",
          "type": "string"
        },
        {
          "internalType": "string",
          "name": "metadataURI",
          "type": "string"
        }
      ],
      "stateMutability": "view",
      "type": "function"
    },
    {
      "inputs": [
        {
          "internalType": "string",
          "name": "_name",
          "type": "string"
        },
        {
          "internalType": "string",
          "name": "_description",
          "type": "string"
        },
        {
          "internalType": "string",
          "name": "_metadataURI",
          "type": "string"
        }
      ],
      "name": "createBadge",
      "outputs": [
        {
          "internalType": "uint256",
          "name": "",
          "type": "uint256"
        }
      ],
      "stateMutability": "nonpayable",
      "type": "function"
    },
    {
      "inputs": [],
      "name": "depositContractBalance",
      "outputs": [],
      "stateMutability": "payable",
      "type": "function"
    },
    {
      "inputs": [
        {
          "internalType": "address",
          "name": "_user",
          "type": "address"
        },
        {
          "internalType": "uint256",
          "name": "_quantity",
          "type": "uint256"
        }
      ],
      "name": "depositGlass",
      "outputs": [],
      "stateMutability": "nonpayable",
      "type": "function"
    },
    {
      "inputs": [
        {
          "internalType": "address",
          "name": "_user",
          "type": "address"
        },
        {
          "internalType": "uint256",
          "name": "_quantity",
          "type": "uint256"
        }
      ],
      "name": "depositMetal",
      "outputs": [],
      "stateMutability": "nonpayable",
      "type": "function"
    },
    {
      "inputs": [
        {
          "internalType": "address",
          "name": "_user",
          "type": "address"
        },
        {
          "internalType": "uint256",
          "name": "_quantity",
          "type": "uint256"
        }
      ],
      "name": "depositPlastic",
      "outputs": [],
      "stateMutability": "nonpayable",
      "type": "function"
    },
    {
      "inputs": [
        {
          "internalType": "uint256",
          "name": "_badgeId",
          "type": "uint256"
        }
      ],
      "name": "getBadgeInfo",
      "outputs": [
        {
          "internalType": "string",
          "name": "name",
          "type": "string"
        },
        {
          "internalType": "string",
          "name": "description",
          "type": "string"
        },
        {
          "internalType": "string",
          "name": "uri",
          "type": "string"
        }
      ],
      "stateMutability": "view",
      "type": "function"
    },
    {
      "inputs": [],
      "name": "getTotalBadgeTypes",
      "outputs": [
        {
          "internalType": "uint256",
          "name": "",
          "type": "uint256"
        }
      ],
      "stateMutability": "view",
      "type": "function"
    },
    {
      "inputs": [
        {
          "internalType": "address",
          "name": "_user",
          "type": "address"
        }
      ],
      "name": "getUserDeposits",
      "outputs": [
        {
          "internalType": "uint256",
          "name": "plasticCount",
          "type": "uint256"
        },
        {
          "internalType": "uint256",
          "name": "glassCount",
          "type": "uint256"
        },
        {
          "internalType": "uint256",
          "name": "metalCount",
          "type": "uint256"
        }
      ],
      "stateMutability": "view",
      "type": "function"
    },
    {
      "inputs": [
        {
          "internalType": "address",
          "name": "",
          "type": "address"
        }
      ],
      "name": "glassDeposits",
      "outputs": [
        {
          "internalType": "uint256",
          "name": "",
          "type": "uint256"
        }
      ],
      "stateMutability": "view",
      "type": "function"
    },
    {
      "inputs": [],
      "name": "glassRewardPerItem",
      "outputs": [
        {
          "internalType": "uint256",
          "name": "",
          "type": "uint256"
        }
      ],
      "stateMutability": "view",
      "type": "function"
    },
    {
      "inputs": [
        {
          "internalType": "address",
          "name": "",
          "type": "address"
        }
      ],
      "name": "metalDeposits",
      "outputs": [
        {
          "internalType": "uint256",
          "name": "",
          "type": "uint256"
        }
      ],
      "stateMutability": "view",
      "type": "function"
    },
    {
      "inputs": [],
      "name": "metalRewardPerItem",
      "outputs": [
        {
          "internalType": "uint256",
          "name": "",
          "type": "uint256"
        }
      ],
      "stateMutability": "view",
      "type": "function"
    },
    {
      "inputs": [],
      "name": "owner",
      "outputs": [
        {
          "internalType": "address",
          "name": "",
          "type": "address"
        }
      ],
      "stateMutability": "view",
      "type": "function"
    },
    {
      "inputs": [
        {
          "internalType": "address",
          "name": "",
          "type": "address"
        }
      ],
      "name": "plasticDeposits",
      "outputs": [
        {
          "internalType": "uint256",
          "name": "",
          "type": "uint256"
        }
      ],
      "stateMutability": "view",
      "type": "function"
    },
    {
      "inputs": [],
      "name": "plasticRewardPerItem",
      "outputs": [
        {
          "internalType": "uint256",
          "name": "",
          "type": "uint256"
        }
      ],
      "stateMutability": "view",
      "type": "function"
    },
    {
      "inputs": [],
      "name": "renounceOwnership",
      "outputs": [],
      "stateMutability": "nonpayable",
      "type": "function"
    },
    {
      "inputs": [
        {
          "internalType": "address",
          "name": "_user",
          "type": "address"
        },
        {
          "internalType": "uint256",
          "name": "_amount",
          "type": "uint256"
        }
      ],
      "name": "rewardUser",
      "outputs": [],
      "stateMutability": "nonpayable",
      "type": "function"
    },
    {
      "inputs": [
        {
          "internalType": "uint256",
          "name": "_plasticReward",
          "type": "uint256"
        },
        {
          "internalType": "uint256",
          "name": "_glassReward",
          "type": "uint256"
        },
        {
          "internalType": "uint256",
          "name": "_metalReward",
          "type": "uint256"
        }
      ],
      "name": "setRewardRates",
      "outputs": [],
      "stateMutability": "nonpayable",
      "type": "function"
    },
    {
      "inputs": [
        {
          "internalType": "address",
          "name": "newOwner",
          "type": "address"
        }
      ],
      "name": "transferOwnership",
      "outputs": [],
      "stateMutability": "nonpayable",
      "type": "function"
    },
    {
      "inputs": [
        {
          "internalType": "address",
          "name": "",
          "type": "address"
        }
      ],
      "name": "userBalances",
      "outputs": [
        {
          "internalType": "uint256",
          "name": "",
          "type": "uint256"
        }
      ],
      "stateMutability": "view",
      "type": "function"
    },
    {
      "inputs": [],
      "name": "withdraw",
      "outputs": [],
      "stateMutability": "nonpayable",
      "type": "function"
    }
  ],
  "bytecode": "0x608060405234801561001057600080fd5b5060405161208138038061208183398181016040528101906100329190610210565b80600073ffffffffffffffffffffffffffffffffffffffff168173ffffffffffffffffffffffffffffffffffffffff16036100a55760006040517f1e4fbdf700000000000000000000000000000000000000000000000000000000815260040161009c919061024c565b60405180910390fd5b6100b4816100e960201b60201c565b5060018081905550650f1200f6c400600781905550650f1200f6c400600881905550650f1200f6c40060098190555050610267565b60008060009054906101000a900473ffffffffffffffffffffffffffffffffffffffff169050816000806101000a81548173ffffffffffffffffffffffffffffffffffffffff021916908373ffffffffffffffffffffffffffffffffffffffff1602179055508173ffffffffffffffffffffffffffffffffffffffff168173ffffffffffffffffffffffffffffffffffffffff167f8be0079c531659141344cd1fd0a4f28419497f9722a3daafe3b4186f6b6457e060405160405180910390a35050565b600080fd5b600073ffffffffffffffffffffffffffffffffffffffff82169050919050565b60006101dd826101b2565b9050919050565b6101ed816101d2565b81146101f857600080fd5b50565b60008151905061020a816101e4565b92915050565b600060208284031215610226576102256101ad565b5b6000610234848285016101fb565b91505092915050565b610246816101d2565b82525050565b6000602082019050610261600083018461023d565b92915050565b611e0b806102766000396000f3fe6080604052600436106101355760003560e01c80637a2105b7116100ab578063bdf2aaa81161006f578063bdf2aaa81461040b578063c6c2738a14610448578063e2045b5e14610473578063e4aafaab146104b2578063e4e103dc146104db578063f2fde38b1461050457610135565b80637a2105b7146103455780638da5cb5b1461036e578063928ec28c1461039957806398e36d8b146103a3578063b9e44721146103e257610135565b80634489b8bc116100fd5780634489b8bc1461023557806357cf9cef146102605780636a4a66b1146102895780636bd08d6b146102b4578063715018a6146102f157806371e3ec0d1461030857610135565b806315c4286f1461013a578063171556591461016557806326224c64146101a25780632a5bf6d2146101df5780633ccfd60b1461021e575b600080fd5b34801561014657600080fd5b5061014f61052d565b60405161015c919061133a565b60405180910390f35b34801561017157600080fd5b5061018c600480360381019061018791906114af565b61053a565b604051610199919061133a565b60405180910390f35b3480156101ae57600080fd5b506101c960048036038101906101c491906115b4565b6105ef565b6040516101d6919061133a565b60405180910390f35b3480156101eb57600080fd5b50610206600480360381019061020191906115b4565b610607565b604051610215939291906115e1565b60405180910390f35b34801561022a57600080fd5b506102336106d9565b005b34801561024157600080fd5b5061024a610865565b604051610257919061133a565b60405180910390f35b34801561026c57600080fd5b5061028760048036038101906102829190611644565b61086b565b005b34801561029557600080fd5b5061029e610979565b6040516102ab919061133a565b60405180910390f35b3480156102c057600080fd5b506102db60048036038101906102d691906115b4565b61097f565b6040516102e8919061133a565b60405180910390f35b3480156102fd57600080fd5b50610306610997565b005b34801561031457600080fd5b5061032f600480360381019061032a91906115b4565b6109ab565b60405161033c919061133a565b60405180910390f35b34801561035157600080fd5b5061036c60048036038101906103679190611684565b6109c3565b005b34801561037a57600080fd5b506103836109e5565b60405161039091906116e6565b60405180910390f35b6103a1610a0e565b005b3480156103af57600080fd5b506103ca60048036038101906103c59190611701565b610a18565b6040516103d9939291906117ad565b60405180910390f35b3480156103ee57600080fd5b5061040960048036038101906104049190611644565b610bea565b005b34801561041757600080fd5b50610432600480360381019061042d91906115b4565b610cf8565b60405161043f919061133a565b60405180910390f35b34801561045457600080fd5b5061045d610d10565b60405161046a919061133a565b60405180910390f35b34801561047f57600080fd5b5061049a60048036038101906104959190611701565b610d16565b6040516104a9939291906117ad565b60405180910390f35b3480156104be57600080fd5b506104d960048036038101906104d49190611644565b610f46565b005b3480156104e757600080fd5b5061050260048036038101906104fd9190611644565b611054565b005b34801561051057600080fd5b5061052b600480360381019061052691906115b4565b6110f9565b005b6000600280549050905090565b600061054461117f565b60026040518060600160405280868152602001858152602001848152509080600181540180825580915050600190039060005260206000209060030201600090919091909150600082015181600001908161059f9190611a05565b5060208201518160010190816105b59190611a05565b5060408201518160020190816105cb9190611a05565b505050600060016002805490506105e29190611b06565b9050809150509392505050565b60036020528060005260406000206000915090505481565b6000806000600460008573ffffffffffffffffffffffffffffffffffffffff1673ffffffffffffffffffffffffffffffffffffffff16815260200190815260200160002054600560008673ffffffffffffffffffffffffffffffffffffffff1673ffffffffffffffffffffffffffffffffffffffff16815260200190815260200160002054600660008773ffffffffffffffffffffffffffffffffffffffff1673ffffffffffffffffffffffffffffffffffffffff168152602001908152602001600020549250925092509193909250565b6106e1611206565b6000600360003373ffffffffffffffffffffffffffffffffffffffff1673ffffffffffffffffffffffffffffffffffffffff16815260200190815260200160002054905060008111610768576040517f08c379a000000000000000000000000000000000000000000000000000000000815260040161075f90611b86565b60405180910390fd5b6000600360003373ffffffffffffffffffffffffffffffffffffffff1673ffffffffffffffffffffffffffffffffffffffff1681526020019081526020016000208190555060003373ffffffffffffffffffffffffffffffffffffffff16826040516107d390611bd7565b60006040518083038185875af1925050503d8060008114610810576040519150601f19603f3d011682016040523d82523d6000602084013e610815565b606091505b5050905080610859576040517f08c379a000000000000000000000000000000000000000000000000000000000815260040161085090611c38565b60405180910390fd5b505061086361124c565b565b60075481565b61087361117f565b80600560008473ffffffffffffffffffffffffffffffffffffffff1673ffffffffffffffffffffffffffffffffffffffff16815260200190815260200160002060008282546108c29190611c58565b925050819055506000816008546108d99190611c8c565b90504781111561091e576040517f08c379a000000000000000000000000000000000000000000000000000000000815260040161091590611d1a565b60405180910390fd5b80600360008573ffffffffffffffffffffffffffffffffffffffff1673ffffffffffffffffffffffffffffffffffffffff168152602001908152602001600020600082825461096d9190611c58565b92505081905550505050565b60085481565b60046020528060005260406000206000915090505481565b61099f61117f565b6109a96000611255565b565b60066020528060005260406000206000915090505481565b6109cb61117f565b826007819055508160088190555080600981905550505050565b60008060009054906101000a900473ffffffffffffffffffffffffffffffffffffffff16905090565b610a1661117f565b565b60028181548110610a2857600080fd5b9060005260206000209060030201600091509050806000018054610a4b90611828565b80601f0160208091040260200160405190810160405280929190818152602001828054610a7790611828565b8015610ac45780601f10610a9957610100808354040283529160200191610ac4565b820191906000526020600020905b815481529060010190602001808311610aa757829003601f168201915b505050505090806001018054610ad990611828565b80601f0160208091040260200160405190810160405280929190818152602001828054610b0590611828565b8015610b525780601f10610b2757610100808354040283529160200191610b52565b820191906000526020600020905b815481529060010190602001808311610b3557829003601f168201915b505050505090806002018054610b6790611828565b80601f0160208091040260200160405190810160405280929190818152602001828054610b9390611828565b8015610be05780601f10610bb557610100808354040283529160200191610be0565b820191906000526020600020905b815481529060010190602001808311610bc357829003601f168201915b5050505050905083565b610bf261117f565b80600660008473ffffffffffffffffffffffffffffffffffffffff1673ffffffffffffffffffffffffffffffffffffffff1681526020019081526020016000206000828254610c419190611c58565b92505081905550600081600954610c589190611c8c565b905047811115610c9d576040517f08c379a0000000000000000000000000000000000000000000000000000000008152600401610c9490611d1a565b60405180910390fd5b80600360008573ffffffffffffffffffffffffffffffffffffffff1673ffffffffffffffffffffffffffffffffffffffff1681526020019081526020016000206000828254610cec9190611c58565b92505081905550505050565b60056020528060005260406000206000915090505481565b60095481565b60608060606002805490508410610d62576040517f08c379a0000000000000000000000000000000000000000000000000000000008152600401610d5990611d86565b60405180910390fd5b600060028581548110610d7857610d77611da6565b5b90600052602060002090600302019050806000018160010182600201828054610da090611828565b80601f0160208091040260200160405190810160405280929190818152602001828054610dcc90611828565b8015610e195780601f10610dee57610100808354040283529160200191610e19565b820191906000526020600020905b815481529060010190602001808311610dfc57829003601f168201915b50505050509250818054610e2c90611828565b80601f0160208091040260200160405190810160405280929190818152602001828054610e5890611828565b8015610ea55780601f10610e7a57610100808354040283529160200191610ea5565b820191906000526020600020905b815481529060010190602001808311610e8857829003601f168201915b50505050509150808054610eb890611828565b80601f0160208091040260200160405190810160405280929190818152602001828054610ee490611828565b8015610f315780601f10610f0657610100808354040283529160200191610f31565b820191906000526020600020905b815481529060010190602001808311610f1457829003601f168201915b50505050509050935093509350509193909250565b610f4e61117f565b80600460008473ffffffffffffffffffffffffffffffffffffffff1673ffffffffffffffffffffffffffffffffffffffff1681526020019081526020016000206000828254610f9d9190611c58565b92505081905550600081600754610fb49190611c8c565b905047811115610ff9576040517f08c379a0000000000000000000000000000000000000000000000000000000008152600401610ff090611d1a565b60405180910390fd5b80600360008573ffffffffffffffffffffffffffffffffffffffff1673ffffffffffffffffffffffffffffffffffffffff16815260200190815260200160002060008282546110489190611c58565b92505081905550505050565b61105c61117f565b4781111561109f576040517f08c379a000000000000000000000000000000000000000000000000000000000815260040161109690611d1a565b60405180910390fd5b80600360008473ffffffffffffffffffffffffffffffffffffffff1673ffffffffffffffffffffffffffffffffffffffff16815260200190815260200160002060008282546110ee9190611c58565b925050819055505050565b61110161117f565b600073ffffffffffffffffffffffffffffffffffffffff168173ffffffffffffffffffffffffffffffffffffffff16036111735760006040517f1e4fbdf700000000000000000000000000000000000000000000000000000000815260040161116a91906116e6565b60405180910390fd5b61117c81611255565b50565b611187611319565b73ffffffffffffffffffffffffffffffffffffffff166111a56109e5565b73ffffffffffffffffffffffffffffffffffffffff1614611204576111c8611319565b6040517f118cdaa70000000000000000000000000000000000000000000000000000000081526004016111fb91906116e6565b60405180910390fd5b565b600260015403611242576040517f3ee5aeb500000000000000000000000000000000000000000000000000000000815260040160405180910390fd5b6002600181905550565b60018081905550565b60008060009054906101000a900473ffffffffffffffffffffffffffffffffffffffff169050816000806101000a81548173ffffffffffffffffffffffffffffffffffffffff021916908373ffffffffffffffffffffffffffffffffffffffff1602179055508173ffffffffffffffffffffffffffffffffffffffff168173ffffffffffffffffffffffffffffffffffffffff167f8be0079c531659141344cd1fd0a4f28419497f9722a3daafe3b4186f6b6457e060405160405180910390a35050565b600033905090565b6000819050919050565b61133481611321565b82525050565b600060208201905061134f600083018461132b565b92915050565b6000604051905090565b600080fd5b600080fd5b600080fd5b600080fd5b6000601f19601f8301169050919050565b7f4e487b7100000000000000000000000000000000000000000000000000000000600052604160045260246000fd5b6113bc82611373565b810181811067ffffffffffffffff821117156113db576113da611384565b5b80604052505050565b60006113ee611355565b90506113fa82826113b3565b919050565b600067ffffffffffffffff82111561141a57611419611384565b5b61142382611373565b9050602081019050919050565b82818337600083830152505050565b600061145261144d846113ff565b6113e4565b90508281526020810184848401111561146e5761146d61136e565b5b611479848285611430565b509392505050565b600082601f83011261149657611495611369565b5b81356114a684826020860161143f565b91505092915050565b6000806000606084860312156114c8576114c761135f565b5b600084013567ffffffffffffffff8111156114e6576114e5611364565b5b6114f286828701611481565b935050602084013567ffffffffffffffff81111561151357611512611364565b5b61151f86828701611481565b925050604084013567ffffffffffffffff8111156115405761153f611364565b5b61154c86828701611481565b9150509250925092565b600073ffffffffffffffffffffffffffffffffffffffff82169050919050565b600061158182611556565b9050919050565b61159181611576565b811461159c57600080fd5b50565b6000813590506115ae81611588565b92915050565b6000602082840312156115ca576115c961135f565b5b60006115d88482850161159f565b91505092915050565b60006060820190506115f6600083018661132b565b611603602083018561132b565b611610604083018461132b565b949350505050565b61162181611321565b811461162c57600080fd5b50565b60008135905061163e81611618565b92915050565b6000806040838503121561165b5761165a61135f565b5b60006116698582860161159f565b925050602061167a8582860161162f565b9150509250929050565b60008060006060848603121561169d5761169c61135f565b5b60006116ab8682870161162f565b93505060206116bc8682870161162f565b92505060406116cd8682870161162f565b9150509250925092565b6116e081611576565b82525050565b60006020820190506116fb60008301846116d7565b92915050565b6000602082840312156117175761171661135f565b5b60006117258482850161162f565b91505092915050565b600081519050919050565b600082825260208201905092915050565b60005b8381101561176857808201518184015260208101905061174d565b60008484015250505050565b600061177f8261172e565b6117898185611739565b935061179981856020860161174a565b6117a281611373565b840191505092915050565b600060608201905081810360008301526117c78186611774565b905081810360208301526117db8185611774565b905081810360408301526117ef8184611774565b9050949350505050565b7f4e487b7100000000000000000000000000000000000000000000000000000000600052602260045260246000fd5b6000600282049050600182168061184057607f821691505b602082108103611853576118526117f9565b5b50919050565b60008190508160005260206000209050919050565b60006020601f8301049050919050565b600082821b905092915050565b6000600883026118bb7fffffffffffffffffffffffffffffffffffffffffffffffffffffffffffffffff8261187e565b6118c5868361187e565b95508019841693508086168417925050509392505050565b6000819050919050565b60006119026118fd6118f884611321565b6118dd565b611321565b9050919050565b6000819050919050565b61191c836118e7565b61193061192882611909565b84845461188b565b825550505050565b600090565b611945611938565b611950818484611913565b505050565b5b818110156119745761196960008261193d565b600181019050611956565b5050565b601f8211156119b95761198a81611859565b6119938461186e565b810160208510156119a2578190505b6119b66119ae8561186e565b830182611955565b50505b505050565b600082821c905092915050565b60006119dc600019846008026119be565b1980831691505092915050565b60006119f583836119cb565b9150826002028217905092915050565b611a0e8261172e565b67ffffffffffffffff811115611a2757611a26611384565b5b611a318254611828565b611a3c828285611978565b600060209050601f831160018114611a6f5760008415611a5d578287015190505b611a6785826119e9565b865550611acf565b601f198416611a7d86611859565b60005b82811015611aa557848901518255600182019150602085019450602081019050611a80565b86831015611ac25784890151611abe601f8916826119cb565b8355505b6001600288020188555050505b505050505050565b7f4e487b7100000000000000000000000000000000000000000000000000000000600052601160045260246000fd5b6000611b1182611321565b9150611b1c83611321565b9250828203905081811115611b3457611b33611ad7565b5b92915050565b7f4e6f2062616c616e636520746f20776974686472617700000000000000000000600082015250565b6000611b70601683611739565b9150611b7b82611b3a565b602082019050919050565b60006020820190508181036000830152611b9f81611b63565b9050919050565b600081905092915050565b50565b6000611bc1600083611ba6565b9150611bcc82611bb1565b600082019050919050565b6000611be282611bb4565b9150819050919050565b7f5769746864726177207472616e73666572206661696c65640000000000000000600082015250565b6000611c22601883611739565b9150611c2d82611bec565b602082019050919050565b60006020820190508181036000830152611c5181611c15565b9050919050565b6000611c6382611321565b9150611c6e83611321565b9250828201905080821115611c8657611c85611ad7565b5b92915050565b6000611c9782611321565b9150611ca283611321565b9250828202611cb081611321565b91508282048414831517611cc757611cc6611ad7565b5b5092915050565b7f4e6f7420656e6f75676820636f6e74726163742062616c616e63650000000000600082015250565b6000611d04601b83611739565b9150611d0f82611cce565b602082019050919050565b60006020820190508181036000830152611d3381611cf7565b9050919050565b7f426164676520646f6573206e6f74206578697374000000000000000000000000600082015250565b6000611d70601483611739565b9150611d7b82611d3a565b602082019050919050565b60006020820190508181036000830152611d9f81611d63565b9050919050565b7f4e487b7100000000000000000000000000000000000000000000000000000000600052603260045260246000fdfea2646970667358221220968a462f9d4bc763563ceba62c38fbc4e531001c78cad7045169194f973d3b2764736f6c634300081c0033",
  "linkReferences": {},
  "deployedLinkReferences": {}
}